S02500004275696C6420796F7572206F776E20647269766572206C6962726172792E73726563EB
S11300000C942A000C94A8030C943C000C943C001F
S11300100C943C000C943C000C943C000C943C006C
S11300200C943C000C943C000C943C000C94700325
S11300300C943C000C943C000C943C000C943C004C
S11300400C943C000C943C000C943C000C943C003C
S11300500C943C0011241FBECFE5D8E0DEBFCDBF19
S113006020E0A0E6B0E001C01D92A437B207E1F79A
S11300700E941D040C940E080C94000080916A00E8
S113008090916B00A0916C00B0916D00809366001C
S113009090936700A0936800B093690064E482E0E1
S11300A00E94110481E090E00E9420060E947506DF
S11300B061E480E00E949F0561E481E00E949F0565
S11300C061E482E00E949F0562E480E00E949F0553
S11300D062E481E00E949F0562E482E00E949F0541
S11300E00E94B90561E080E00E94BE0508958091F8
S11300F06000882321F0813009F40DC108956091D6
S11301006A0070916B0080916C0090916D0020E00A
S113011030E44CE955E40E94E70688239CF461E44A
S113012080E00E94AF0581E08093630061E40E9457
S1130130B40561E482E00E94B4051092610010925B
S11301406200CFC060916A0070916B0080916C0076
S113015090916D0020E030E44CE955E40E940908D8
S11301601816ECF560916A0070916B0080916C0038
S113017090916D0020E030E44CE156E40E94E706E3
S113018088236CF561E480E00E94B40561E482E0B8
S11301900E94B40581E08093610010926200109285
S11301A0630060916A0070916B0080916C00909183
S11301B06D0020E030E04AE754E40E94EC060E941F
S11301C05E0761707727672B29F461E481E00E9460
S11301D0AF0587C061E481E00E94B40582C06091EC
S11301E06A0070916B0080916C0090916D0020E02A
S11301F030E44CE156E40E940908181634F5609185
S11302006A0070916B0080916C0090916D0020E009
S113021030E64AE656E40E94E7068823B4F481E017
S113022080936200109261001092630061E482E0A6
S11302300E94AF0561E480E00E94B40561E481E0BE
S11302400E94B405109263004CC060916A007091E2
S11302506B0080916C0090916D0020E030E64AE6DE
S113026056E40E9409081816E4F560916A0070913A
S11302706B0080916C0090916D0020E030E44CE9BB
S113028056E40E94E706882364F561E480E00E9456
S1130290B40561E482E00E94B405109262001092F9
S11302A0630060916A0070916B0080916C00909182
S11302B06D0020E030E04AE754E40E94EC060E941E
S11302C05E0761707727672B29F461E481E00E945F
S11302D0AF0504C061E481E00E94B40581E080932D
S11302E0610060916A0070916B0080916C00909144
S11302F06D0020E030E44CE956E40E940908181629
S11303000CF0EDC110926A0010926B0010926C0018
S113031010926D00089580916200882309F4C2C090
S113032060916A0070916B0080916C0090916D00F7
S113033020E030E44CE955E40E94E70688238CF47D
S113034061E482E00E94AF0562E480E00E94AF05B0
S113035062E481E00E94B40562E482E00E94B40594
S1130360A1C060916A0070916B0080916C009091C3
S11303706D0020E030E44CE955E40E9409081816A9
S1130380D4F560916A0070916B0080916C0090913B
S11303906D0020E030E44CE156E40E94E706882337
S11303A054F561E482E00E94B40560916A007091A2
S11303B06B0080916C0090916D0020E030E04AE782
S11303C054E40E94EC060E945E0761707727672B55
S11303D049F461E481E00E94AF0562E481E00E9497
S11303E0AF0560C061E481E00E94B40562E481E08D
S11303F00E94B40557C060916A0070916B008091AF
S11304006C0090916D0020E030E44CE156E40E94D1
S1130410090818162CF560916A0070916B008091A0
S11304206C0090916D0020E030E64AE656E40E94AC
S1130430E7068823ACF461E481E00E94B40562E439
S113044081E00E94B40562E480E00E94B40562E4A5
S113045082E00E94AF0561E480E00E94AF0522C003
S113046060916A0070916B0080916C0090916D00B6
S113047020E030E64AE656E40E940908181694F48F
S113048062E482E00E94B40561E480E00E94B40565
S11304901092600010926A0010926B0010926C002F
S11304A010926D0080916300811105C080916100FC
S11304B0882309F414C160916A0070916B008091E3
S11304C06C0090916D0020E030E44CE955E40E940A
S11304D0E706882374F561E480E00E94B40562E4D1
S11304E082E00E94AF0560916A0070916B00809178
S11304F06C0090916D0020E030E04AE754E40E94E3
S1130500EC060E945E0761707727672B49F461E46B
S113051081E00E94AF0562E481E00E94AF05089586
S113052061E481E00E94B40562E481E00E94B405C4
S1130530089560916A0070916B0080916C009091B5
S11305406D0020E030E44CE955E40E9409081816D7
S11305502CF560916A0070916B0080916C00909111
S11305606D0020E030E44CE156E40E94E706882365
S1130570ACF461E481E00E94B40562E481E00E948D
S1130580B40562E482E00E94B40562E480E00E9463
S1130590AF0561E482E00E94AF05089560916A00AE
S11305A070916B0080916C0090916D0020E030E4BC
S11305B04CE156E40E9409081816D4F560916A00CB
S11305C070916B0080916C0090916D0020E030E69A
S11305D04AE656E40E94E706882354F561E482E083
S11305E00E94B40560916A0070916B0080916C0068
S11305F090916D0020E030E04AE754E40E94EC065C
S11306000E945E0761707727672B49F461E481E0FB
S11306100E94AF0562E481E00E94AF05089561E4A1
S113062081E00E94B40562E481E00E94B40508956B
S113063060916A0070916B0080916C0090916D00E4
S113064020E030E64AE656E40E94090818162CF524
S113065060916A0070916B0080916C0090916D00C4
S113066020E030E44CE956E40E94E7068823ACF429
S113067061E481E00E94B40562E481E00E94B40573
S113068062E480E00E94B40562E482E00E94AF0567
S113069061E480E00E94AF05089560916A00709162
S11306A06B0080916C0090916D0020E030E44CE987
S11306B056E40E940908181694F462E482E00E9449
S11306C0B40561E480E00E94B405109260001092C9
S11306D06A0010926B0010926C0010926D000895E5
S11306E01F920F920FB60F9211242F933F934F93A3
S11306F05F936F937F938F939F93AF93BF93EF9386
S1130700FF9360916A0070916B0080916C009091EE
S11307106D002FE632E143E85EE30E947B066093BE
S11307206A0070936B0080936C0090936D00FF914E
S1130730EF91BF91AF919F918F917F916F915F9155
S11307404F913F912F910F900FBE0F901F901895CE
S11307501F920F920FB60F9211242F933F934F9332
S11307605F936F937F938F939F93AF93BF93EF9315
S1130770FF93E0917200F0917300408150E064E4D3
S113078082E00E941604829B10C080916A009091BE
S11307906B00A0916C00B0916D0080936E009093FB
S11307A06F00A0937000B0937100829929C060918A
S11307B06A0070916B0080916C0090916D002091A3
S11307C06E0030916F0040917000509171000E9452
S11307D07A0620E030E04AE754E40E94E7068823E2
S11307E07CF48091600081110BC010926A00109219
S11307F06B0010926C0010926D0081E08093600099
S1130800FF91EF91BF91AF919F918F917F916F91E4
S11308105F914F913F912F910F900FBE0F901F90BA
S1130820189540E00E94220480E00895FA01408176
S113083050E00E945A0580E008950E943E000E9404
S11308407700FDCF623469F118F4613441F08DC052
S1130850633409F448C0643409F466C086C04111A5
S11308600FC04AB321E030E0B90102C0660F771F20
S11308708A95E2F7CB01809584238ABB80E00895B2
S1130880413009F073C04AB321E030E0B90102C03D
S1130890660F771F8A95E2F7CB01842B8ABB80E031
S11308A0089541110FC047B321E030E0B90102C0FF
S11308B0660F771F8A95E2F7CB018095842387BB67
S11308C080E00895413009F053C047B321E030E09F
S11308D0B90102C0660F771F8A95E2F7CB01842B1A
S11308E087BB80E0089541110FC044B321E030E09C
S11308F0B90102C0660F771F8A95E2F7CB01809594
S1130900842384BB80E008954130A1F544B321E001
S113091030E0B90102C0660F771F8A95E2F7CB0178
S1130920842B84BB80E0089541110FC041B321E0C2
S113093030E0B90102C0660F771F8A95E2F7CB0158
S11309408095842381BB80E008954130A9F441B3AC
S113095021E030E0B90102C0660F771F8A95E2F703
S1130960CB01842B81BB80E00895089581E0089534
S113097081E0089581E0089581E00895623469F189
S113098018F4613441F08DC0633409F448C0643410
S113099009F466C086C041110FC04BB321E030E0BA
S11309A0B90102C0660F771F8A95E2F7CB018095E3
S11309B084238BBB80E00895413009F073C04BB3AE
S11309C021E030E0B90102C0660F771F8A95E2F793
S11309D0CB01842B8BBB80E0089541110FC048B339
S11309E021E030E0B90102C0660F771F8A95E2F773
S11309F0CB018095842388BB80E00895413009F0C1
S1130A0053C048B321E030E0B90102C0660F771F3C
S1130A108A95E2F7CB01842B88BB80E008954111CD
S1130A200FC045B321E030E0B90102C0660F771F63
S1130A308A95E2F7CB018095842385BB80E00895F5
S1130A404130A1F545B321E030E0B90102C0660FA1
S1130A50771F8A95E2F7CB01842B85BB80E008954C
S1130A6041110FC042B321E030E0B90102C0660F6A
S1130A70771F8A95E2F7CB018095842382BB80E0BF
S1130A8008954130A9F442B321E030E0B90102C035
S1130A90660F771F8A95E2F7CB01842B82BB80E037
S1130AA00895089581E0089581E0089581E008950E
S1130AB081E008956234B9F018F4613431F03DC036
S1130AC06334F9F0643459F138C029B330E0B90122
S1130AD002C0759567958A95E2F7CB018170FA019A
S1130AE0808380E0089526B330E0B90102C0759593
S1130AF067958A95E2F7CB018170FA01808380E0E3
S1130B00089523B330E0B90102C0759567958A95BD
S1130B10E2F7CB018170FA01808380E0089520B36D
S1130B2030E0B90102C0759567958A95E2F7CB016B
S1130B308170FA01808380E0089581E00895CF9365
S1130B40DF93C82FD62F41E00E94220440E06D2F8E
S1130B508C2F0E94BE0480E0DF91CF91089541E084
S1130B600E94BE0480E0089540E00E94BE0480E03C
S1130B7008958FB780688FBF80E00895813051F168
S1130B8020F0823009F44BC059C0611106C085B70A
S1130B908E7F85BF85B78D7F85BF613031F485B782
S1130BA0816085BF85B78D7F85BF623031F485B79D
S1130BB08E7F85BF85B7826085BF633031F485B78A
S1130BC0816085BF85B7826085BF8BB780648BBF2A
S1130BD080E00895611106C085B78B7F85BF85B716
S1130BE0877F85BF613031F485B7846085BF85B761
S1130BF0877F85BF623031F485B78B7F85BF85B72A
S1130C00886085BF633031F485B7846085BF85B75C
S1130C10886085BF8BB780688BBF80E008956230A1
S1130C2019F484B78F7B84BF633019F484B780646C
S1130C3084BF8BB780628BBF80E0089581E0089504
S1130C4023B7277F23BF23B72F7B23BF9093650050
S1130C50809364008034910529F130F4813091054A
S1130C6059F00897A1F03FC0811521E0920729F1BE
S1130C708115944069F137C083B7816083BF83B71E
S1130C808D7F83BF83B78B7F83BF80E0089583B755
S1130C908E7F83BF83B7826083BF83B78B7F83BF1D
S1130CA080E0089583B7816083BF83B7826083BF88
S1130CB083B78B7F83BF80E0089583B78E7F83BF24
S1130CC083B78D7F83BF83B7846083BF80E008953B
S1130CD083B7816083BF83B78D7F83BF83B784600D
S1130CE083BF80E0089581E0089589B7816089BF5A
S1130CF080E008955058BB27AA270E9492060C94BE
S1130D00CF070E94C10738F00E94C80720F039F4C9
S1130D109F3F19F426F40C94BE070EF4E095E7FB0C
S1130D200C94B807E92F0E94E00758F3BA1762073A
S1130D3073078407950720F079F4A6F50C9402084C
S1130D400EF4E0950B2EBA2FA02D0B01B9019001E2
S1130D500C01CA01A0011124FF27591B99F0593F26
S1130D6050F4503E68F11A16F040A22F232F342F6E
S1130D704427585FF3CF469537952795A795F040BC
S1130D805395C9F77EF41F16BA0B620B730B840BD1
S1130D90BAF09150A1F0FF0FBB1F661F771F881F89
S1130DA0C2F70EC0BA0F621F731F841F48F48795E1
S1130DB077956795B795F7959E3F08F0B0CF9395D3
S1130DC0880F08F09927EE0F9795879508950E944C
S1130DD0940708F481E008950E9400070C94CF075B
S1130DE00E94C80758F00E94C10740F029F45F3FF1
S1130DF029F00C94B80751110C9403080C94BE0705
S1130E000E94E00768F39923B1F3552391F3951BEE
S1130E10550BBB27AA2762177307840738F09F5F17
S1130E205F4F220F331F441FAA1FA9F335D00E2E84
S1130E303AF0E0E832D091505040E695001CCAF7F1
S1130E402BD0FE2F29D0660F771F881FBB1F2617B4
S1130E5037074807AB07B0E809F0BB0B802DBF018B
S1130E60FF2793585F4F3AF09E3F510578F00C945A
S1130E70B8070C9403085F3FE4F3983ED4F38695D7
S1130E8077956795B795F7959F5FC9F7880F911D7B
S1130E909695879597F90895E1E0660F771F881F67
S1130EA0BB1F621773078407BA0720F0621B730B1A
S1130EB0840BBA0BEE1F88F7E09508950E9465072E
S1130EC06894B1110C94030808950E94E80788F00F
S1130ED09F5798F0B92F9927B751B0F0E1F0660FFA
S1130EE0771F881F991F1AF0BA95C9F714C0B1303B
S1130EF091F00E940208B1E008950C940208672F53
S1130F00782F8827B85F39F0B93FCCF38695779569
S1130F106795B395D9F73EF4909580957095619552
S1130F207F4F8F4F9F4F0895990F0008550FAA0BBD
S1130F30E0E8FEEF16161706E807F907C0F01216E8
S1130F401306E407F50798F0621B730B840B950BEB
S1130F5039F40A2661F0232B242B252B21F4089540
S1130F600A2609F4A140A6958FEF811D811D0895DD
S1130F7097F99F6780E870E060E008959FEF80EC48
S1130F80089500240A9416161706180609060895EB
S1130F9000240A9412161306140605060895092E51
S1130FA00394000C11F4882352F0BB0F40F4BF2BC0
S1130FB011F460FF04C06F5F7F4F8F4F9F4F089500
S1130FC057FD9058440F551F59F05F3F71F04795F6
S1130FD0880F97FB991F61F09F3F79F087950895DB
S1130FE0121613061406551FF2CF4695F1DF08C0FA
S1130FF0161617061806991FF1CF86957105610517
S113100008940895E894BB2766277727CB0197F9BE
S113101008950E94940708F48FEF0895F894FFCF81
S9030000FC
